{
  "contractName": "solidity",
  "abi": [
    {
      "inputs": [],
      "stateMutability": "nonpayable",
      "type": "constructor"
    },
    {
      "anonymous": false,
      "inputs": [
        {
          "indexed": false,
          "internalType": "uint256",
          "name": "id",
          "type": "uint256"
        },
        {
          "indexed": false,
          "internalType": "string",
          "name": "name",
          "type": "string"
        },
        {
          "indexed": false,
          "internalType": "uint256",
          "name": "votes",
          "type": "uint256"
        }
      ],
      "name": "electionUpdated",
      "type": "event"
    },
    {
      "inputs": [
        {
          "internalType": "uint256",
          "name": "",
          "type": "uint256"
        }
      ],
      "name": "candidates",
      "outputs": [
        {
          "internalType": "uint256",
          "name": "id",
          "type": "uint256"
        },
        {
          "internalType": "string",
          "name": "name",
          "type": "string"
        },
        {
          "internalType": "uint256",
          "name": "votes",
          "type": "uint256"
        }
      ],
      "stateMutability": "view",
      "type": "function",
      "constant": true
    },
    {
      "inputs": [],
      "name": "candidatesCount",
      "outputs": [
        {
          "internalType": "uint256",
          "name": "",
          "type": "uint256"
        }
      ],
      "stateMutability": "view",
      "type": "function",
      "constant": true
    },
    {
      "inputs": [
        {
          "internalType": "address",
          "name": "",
          "type": "address"
        }
      ],
      "name": "votedOrNot",
      "outputs": [
        {
          "internalType": "bool",
          "name": "",
          "type": "bool"
        }
      ],
      "stateMutability": "view",
      "type": "function",
      "constant": true
    },
    {
      "inputs": [
        {
          "internalType": "uint256",
          "name": "_id",
          "type": "uint256"
        }
      ],
      "name": "Vote",
      "outputs": [],
      "stateMutability": "nonpayable",
      "type": "function"
    }
  ],
  "bytecode": "0x60806040523480156200001157600080fd5b50620000586040518060400160405280601181526020017f20446f6e616c6420547275696d70682020000000000000000000000000000000815250620000a460201b60201c565b6200009e6040518060400160405280600e81526020017f20426172616b68204f62616d6120000000000000000000000000000000000000815250620000a460201b60201c565b620002c4565b600080815480929190620000b89062000211565b919050555060405180606001604052806000548152602001828152602001600081525060016000805481526020019081526020016000206000820151816000015560208201518160010190805190602001906200011792919062000128565b506040820151816002015590505050565b82805462000136906200028e565b90600052602060002090601f0160209004810192826200015a5760008555620001a6565b82601f106200017557805160ff1916838001178555620001a6565b82800160010185558215620001a6579182015b82811115620001a557825182559160200191906001019062000188565b5b509050620001b59190620001b9565b5090565b5b80821115620001d4576000816000905550600101620001ba565b5090565b7f4e487b7100000000000000000000000000000000000000000000000000000000600052601160045260246000fd5b6000819050919050565b60006200021e8262000207565b91507fffffffffffffffffffffffffffffffffffffffffffffffffffffffffffffffff821415620002545762000253620001d8565b5b600182019050919050565b7f4e487b7100000000000000000000000000000000000000000000000000000000600052602260045260246000fd5b60006002820490506001821680620002a757607f821691505b60208210811415620002be57620002bd6200025f565b5b50919050565b6108a380620002d46000396000f3fe608060405234801561001057600080fd5b506004361061004c5760003560e01c80632d35a8a2146100515780633477ee2e1461006f578063ca020d14146100a1578063dcd6a5cd146100d1575b600080fd5b6100596100ed565b60405161006691906103b2565b60405180910390f35b610089600480360381019061008491906103fe565b6100f3565b604051610098939291906104c4565b60405180910390f35b6100bb60048036038101906100b69190610560565b6101a5565b6040516100c891906105a8565b60405180910390f35b6100eb60048036038101906100e691906103fe565b6101c5565b005b60005481565b600160205280600052604060002060009150905080600001549080600101805461011c906105f2565b80601f0160208091040260200160405190810160405280929190818152602001828054610148906105f2565b80156101955780601f1061016a57610100808354040283529160200191610195565b820191906000526020600020905b81548152906001019060200180831161017857829003601f168201915b5050505050908060020154905083565b60026020528060005260406000206000915054906101000a900460ff1681565b600260003373ffffffffffffffffffffffffffffffffffffffff1673ffffffffffffffffffffffffffffffffffffffff16815260200190815260200160002060009054906101000a900460ff1615610252576040517f08c379a000000000000000000000000000000000000000000000000000000000815260040161024990610696565b60405180910390fd5b6000600160008381526020019081526020016000206000015414156102ac576040517f08c379a00000000000000000000000000000000000000000000000000000000081526004016102a390610702565b60405180910390fd5b6001600082815260200190815260200160002060020160008154809291906102d390610751565b91905055506001600260003373ffffffffffffffffffffffffffffffffffffffff1673ffffffffffffffffffffffffffffffffffffffff16815260200190815260200160002060006101000a81548160ff0219169083151502179055507f468c4db6bbf92318a2d591709af395c4057304a0008128482f1591d0f990f83a8160016000848152602001908152602001600020600101600160008581526020019081526020016000206002015460405161038e9392919061082f565b60405180910390a150565b6000819050919050565b6103ac81610399565b82525050565b60006020820190506103c760008301846103a3565b92915050565b600080fd5b6103db81610399565b81146103e657600080fd5b50565b6000813590506103f8816103d2565b92915050565b600060208284031215610414576104136103cd565b5b6000610422848285016103e9565b91505092915050565b600081519050919050565b600082825260208201905092915050565b60005b8381101561046557808201518184015260208101905061044a565b83811115610474576000848401525b50505050565b6000601f19601f8301169050919050565b60006104968261042b565b6104a08185610436565b93506104b0818560208601610447565b6104b98161047a565b840191505092915050565b60006060820190506104d960008301866103a3565b81810360208301526104eb818561048b565b90506104fa60408301846103a3565b949350505050565b600073ffffffffffffffffffffffffffffffffffffffff82169050919050565b600061052d82610502565b9050919050565b61053d81610522565b811461054857600080fd5b50565b60008135905061055a81610534565b92915050565b600060208284031215610576576105756103cd565b5b60006105848482850161054b565b91505092915050565b60008115159050919050565b6105a28161058d565b82525050565b60006020820190506105bd6000830184610599565b92915050565b7f4e487b7100000000000000000000000000000000000000000000000000000000600052602260045260246000fd5b6000600282049050600182168061060a57607f821691505b6020821081141561061e5761061d6105c3565b5b50919050565b7f796f75206861766520766f74656420666f72207468652070617274696369706160008201527f6e74000000000000000000000000000000000000000000000000000000000000602082015250565b6000610680602283610436565b915061068b82610624565b604082019050919050565b600060208201905081810360008301526106af81610673565b9050919050565b7f74686520696420646f65736e2774206578697374000000000000000000000000600082015250565b60006106ec601483610436565b91506106f7826106b6565b602082019050919050565b6000602082019050818103600083015261071b816106df565b9050919050565b7f4e487b7100000000000000000000000000000000000000000000000000000000600052601160045260246000fd5b600061075c82610399565b91507fffffffffffffffffffffffffffffffffffffffffffffffffffffffffffffffff82141561078f5761078e610722565b5b600182019050919050565b60008190508160005260206000209050919050565b600081546107bc816105f2565b6107c68186610436565b945060018216600081146107e157600181146107f357610826565b60ff1983168652602086019350610826565b6107fc8561079a565b60005b8381101561081e578154818901526001820191506020810190506107ff565b808801955050505b50505092915050565b600060608201905061084460008301866103a3565b818103602083015261085681856107af565b905061086560408301846103a3565b94935050505056fea2646970667358221220f0e8289d4f8b8f19f969d92590c7c9e72d40c2b88bdc07529dfa48e6714702ac64736f6c634300080b0033",
  "immutableReferences": {},
  "source": "//  SPDX-License-Identifier : MIT\r\npragma solidity ^0.8.11;\r\n\r\ncontract solidity{\r\n\r\n         struct Candidate{\r\n    uint id ;\r\n    string name;\r\n    uint votes;  \r\n         }\r\n\r\n         uint public candidatesCount;\r\n\r\n         mapping(uint => Candidate) public candidates;\r\n         mapping (address => bool ) public votedOrNot;\r\n         event electionUpdated(    \r\n             uint id\r\n              , string name\r\n              , uint votes  );\r\n    constructor(){\r\n        addCandidate(\" Donald Truimph  \");\r\n        addCandidate( \" Barakh Obama \");\r\n    }\r\n    // add Candidate\r\n    function addCandidate(string memory name) private {\r\n        candidatesCount++;\r\n        candidates[candidatesCount]= Candidate( candidatesCount, name , 0 );           \r\n    }\r\n\r\n    function Vote(uint _id) public \r\n    {\r\n        // the person must not vote the candidate again .\r\n        require( !votedOrNot[msg.sender] , \"you have voted for the participant\"   );\r\n\r\n        // the candidate id should be valid .\r\n         require(candidates[_id].id != 0 , \"the id doesn't exist\");\r\n         candidates[_id].votes ++;\r\n         votedOrNot[msg.sender] = true;\r\n         emit electionUpdated(_id , candidates[_id].name , candidates[_id].votes );\r\n    }\r\n\r\n\r\n\r\n} ",
  "sourcePath": "F:\\cryptoApp\\contracts\\solidity.sol",
  "compiler": {
    "name": "solc",
    "version": "0.8.11+commit.d7f03943.Emscripten.clang"
  },
  "schemaVersion": "3.4.4",
  "updatedAt": "2022-05-28T08:25:42.476Z",
  "networkType": "ethereum",
  "devdoc": {
    "kind": "dev",
    "methods": {},
    "version": 1
  },
  "userdoc": {
    "kind": "user",
    "methods": {},
    "version": 1
  }
}